{
  "contractName": "NFTContract",
  "abi": [
    {
      "inputs": [],
      "stateMutability": "nonpayable",
      "type": "constructor"
    },
    {
      "anonymous": false,
      "inputs": [
        {
          "indexed": true,
          "internalType": "address",
          "name": "owner",
          "type": "address"
        },
        {
          "indexed": true,
          "internalType": "address",
          "name": "approved",
          "type": "address"
        },
        {
          "indexed": true,
          "internalType": "uint256",
          "name": "tokenId",
          "type": "uint256"
        }
      ],
      "name": "Approval",
      "type": "event"
    },
    {
      "anonymous": false,
      "inputs": [
        {
          "indexed": true,
          "internalType": "address",
          "name": "owner",
          "type": "address"
        },
        {
          "indexed": true,
          "internalType": "address",
          "name": "operator",
          "type": "address"
        },
        {
          "indexed": false,
          "internalType": "bool",
          "name": "approved",
          "type": "bool"
        }
      ],
      "name": "ApprovalForAll",
      "type": "event"
    },
    {
      "anonymous": false,
      "inputs": [
        {
          "indexed": true,
          "internalType": "address",
          "name": "_previousOwner",
          "type": "address"
        },
        {
          "indexed": true,
          "internalType": "address",
          "name": "_newOwner",
          "type": "address"
        }
      ],
      "name": "OwnershipTransferred",
      "type": "event"
    },
    {
      "anonymous": false,
      "inputs": [
        {
          "indexed": true,
          "internalType": "address",
          "name": "from",
          "type": "address"
        },
        {
          "indexed": true,
          "internalType": "address",
          "name": "to",
          "type": "address"
        },
        {
          "indexed": true,
          "internalType": "uint256",
          "name": "tokenId",
          "type": "uint256"
        }
      ],
      "name": "Transfer",
      "type": "event"
    },
    {
      "inputs": [
        {
          "internalType": "address",
          "name": "to",
          "type": "address"
        },
        {
          "internalType": "uint256",
          "name": "tokenId",
          "type": "uint256"
        }
      ],
      "name": "approve",
      "outputs": [],
      "stateMutability": "nonpayable",
      "type": "function"
    },
    {
      "inputs": [
        {
          "internalType": "address",
          "name": "owner",
          "type": "address"
        }
      ],
      "name": "balanceOf",
      "outputs": [
        {
          "internalType": "uint256",
          "name": "",
          "type": "uint256"
        }
      ],
      "stateMutability": "view",
      "type": "function",
      "constant": true
    },
    {
      "inputs": [
        {
          "internalType": "uint256",
          "name": "tokenId",
          "type": "uint256"
        }
      ],
      "name": "getApproved",
      "outputs": [
        {
          "internalType": "address",
          "name": "",
          "type": "address"
        }
      ],
      "stateMutability": "view",
      "type": "function",
      "constant": true
    },
    {
      "inputs": [
        {
          "internalType": "address",
          "name": "owner",
          "type": "address"
        },
        {
          "internalType": "address",
          "name": "operator",
          "type": "address"
        }
      ],
      "name": "isApprovedForAll",
      "outputs": [
        {
          "internalType": "bool",
          "name": "",
          "type": "bool"
        }
      ],
      "stateMutability": "view",
      "type": "function",
      "constant": true
    },
    {
      "inputs": [],
      "name": "name",
      "outputs": [
        {
          "internalType": "string",
          "name": "",
          "type": "string"
        }
      ],
      "stateMutability": "view",
      "type": "function",
      "constant": true
    },
    {
      "inputs": [],
      "name": "owner",
      "outputs": [
        {
          "internalType": "address",
          "name": "",
          "type": "address"
        }
      ],
      "stateMutability": "view",
      "type": "function",
      "constant": true
    },
    {
      "inputs": [
        {
          "internalType": "uint256",
          "name": "tokenId",
          "type": "uint256"
        }
      ],
      "name": "ownerOf",
      "outputs": [
        {
          "internalType": "address",
          "name": "",
          "type": "address"
        }
      ],
      "stateMutability": "view",
      "type": "function",
      "constant": true
    },
    {
      "inputs": [
        {
          "internalType": "address",
          "name": "from",
          "type": "address"
        },
        {
          "internalType": "address",
          "name": "to",
          "type": "address"
        },
        {
          "internalType": "uint256",
          "name": "tokenId",
          "type": "uint256"
        }
      ],
      "name": "safeTransferFrom",
      "outputs": [],
      "stateMutability": "nonpayable",
      "type": "function"
    },
    {
      "inputs": [
        {
          "internalType": "address",
          "name": "from",
          "type": "address"
        },
        {
          "internalType": "address",
          "name": "to",
          "type": "address"
        },
        {
          "internalType": "uint256",
          "name": "tokenId",
          "type": "uint256"
        },
        {
          "internalType": "bytes",
          "name": "data",
          "type": "bytes"
        }
      ],
      "name": "safeTransferFrom",
      "outputs": [],
      "stateMutability": "nonpayable",
      "type": "function"
    },
    {
      "inputs": [
        {
          "internalType": "address",
          "name": "operator",
          "type": "address"
        },
        {
          "internalType": "bool",
          "name": "approved",
          "type": "bool"
        }
      ],
      "name": "setApprovalForAll",
      "outputs": [],
      "stateMutability": "nonpayable",
      "type": "function"
    },
    {
      "inputs": [
        {
          "internalType": "bytes4",
          "name": "interfaceId",
          "type": "bytes4"
        }
      ],
      "name": "supportsInterface",
      "outputs": [
        {
          "internalType": "bool",
          "name": "",
          "type": "bool"
        }
      ],
      "stateMutability": "view",
      "type": "function",
      "constant": true
    },
    {
      "inputs": [],
      "name": "symbol",
      "outputs": [
        {
          "internalType": "string",
          "name": "",
          "type": "string"
        }
      ],
      "stateMutability": "view",
      "type": "function",
      "constant": true
    },
    {
      "inputs": [
        {
          "internalType": "uint256",
          "name": "tokenId",
          "type": "uint256"
        }
      ],
      "name": "tokenURI",
      "outputs": [
        {
          "internalType": "string",
          "name": "",
          "type": "string"
        }
      ],
      "stateMutability": "view",
      "type": "function",
      "constant": true
    },
    {
      "inputs": [
        {
          "internalType": "address",
          "name": "from",
          "type": "address"
        },
        {
          "internalType": "address",
          "name": "to",
          "type": "address"
        },
        {
          "internalType": "uint256",
          "name": "tokenId",
          "type": "uint256"
        }
      ],
      "name": "transferFrom",
      "outputs": [],
      "stateMutability": "nonpayable",
      "type": "function"
    },
    {
      "inputs": [],
      "name": "getOwner",
      "outputs": [
        {
          "internalType": "address",
          "name": "",
          "type": "address"
        }
      ],
      "stateMutability": "view",
      "type": "function",
      "constant": true
    },
    {
      "inputs": [
        {
          "internalType": "address",
          "name": "_to",
          "type": "address"
        },
        {
          "internalType": "string",
          "name": "_tokenURI",
          "type": "string"
        }
      ],
      "name": "safeMint",
      "outputs": [],
      "stateMutability": "nonpayable",
      "type": "function"
    },
    {
      "inputs": [
        {
          "internalType": "address",
          "name": "_newOwner",
          "type": "address"
        }
      ],
      "name": "transferOwnership",
      "outputs": [],
      "stateMutability": "nonpayable",
      "type": "function"
    }
  ],
  "bytecode": "0x60806040523480156200001157600080fd5b506040518060400160405280600b81526020017f4e4654436f6e74726163740000000000000000000000000000000000000000008152506040518060400160405280600481526020017f4e4654430000000000000000000000000000000000000000000000000000000081525081600090805190602001906200009692919062000101565b508060019080519060200190620000af92919062000101565b50505033600760006101000a81548173ffffffffffffffffffffffffffffffffffffffff021916908373ffffffffffffffffffffffffffffffffffffffff160217905550600060088190555062000216565b8280546200010f90620001b1565b90600052602060002090601f0160209004810192826200013357600085556200017f565b82601f106200014e57805160ff19168380011785556200017f565b828001600101855582156200017f579182015b828111156200017e57825182559160200191906001019062000161565b5b5090506200018e919062000192565b5090565b5b80821115620001ad57600081600090555060010162000193565b5090565b60006002820490506001821680620001ca57607f821691505b60208210811415620001e157620001e0620001e7565b5b50919050565b7f4e487b7100000000000000000000000000000000000000000000000000000000600052602260045260246000fd5b612cfe80620002266000396000f3fe608060405234801561001057600080fd5b506004361061010b5760003560e01c8063893d20e8116100a2578063b88d4fde11610071578063b88d4fde146102b8578063c87b56dd146102d4578063d204c45e14610304578063e985e9c514610320578063f2fde38b146103505761010b565b8063893d20e8146102425780638da5cb5b1461026057806395d89b411461027e578063a22cb4651461029c5761010b565b806323b872dd116100de57806323b872dd146101aa57806342842e0e146101c65780636352211e146101e257806370a08231146102125761010b565b806301ffc9a71461011057806306fdde0314610140578063081812fc1461015e578063095ea7b31461018e575b600080fd5b61012a60048036038101906101259190611ecc565b61036c565b6040516101379190612298565b60405180910390f35b61014861044e565b60405161015591906122b3565b60405180910390f35b61017860048036038101906101739190611f26565b6104e0565b6040516101859190612231565b60405180910390f35b6101a860048036038101906101a39190611e8c565b610526565b005b6101c460048036038101906101bf9190611d1a565b61063e565b005b6101e060048036038101906101db9190611d1a565b61069e565b005b6101fc60048036038101906101f79190611f26565b6106be565b6040516102099190612231565b60405180910390f35b61022c60048036038101906102279190611cad565b610770565b6040516102399190612495565b60405180910390f35b61024a610828565b6040516102579190612231565b60405180910390f35b610268610852565b6040516102759190612231565b60405180910390f35b610286610878565b60405161029391906122b3565b60405180910390f35b6102b660048036038101906102b19190611df0565b61090a565b005b6102d260048036038101906102cd9190611d6d565b610920565b005b6102ee60048036038101906102e99190611f26565b610982565b6040516102fb91906122b3565b60405180910390f35b61031e60048036038101906103199190611e30565b610a95565b005b61033a60048036038101906103359190611cda565b610b5b565b6040516103479190612298565b60405180910390f35b61036a60048036038101906103659190611cad565b610bef565b005b60007f80ac58cd000000000000000000000000000000000000000000000000000000007bffffffffffffffffffffffffffffffffffffffffffffffffffffffff1916827bffffffffffffffffffffffffffffffffffffffffffffffffffffffff1916148061043757507f5b5e139f000000000000000000000000000000000000000000000000000000007bffffffffffffffffffffffffffffffffffffffffffffffffffffffff1916827bffffffffffffffffffffffffffffffffffffffffffffffffffffffff1916145b80610447575061044682610daf565b5b9050919050565b60606000805461045d906126eb565b80601f0160208091040260200160405190810160405280929190818152602001828054610489906126eb565b80156104d65780601f106104ab576101008083540402835291602001916104d6565b820191906000526020600020905b8154815290600101906020018083116104b957829003601f168201915b5050505050905090565b60006104eb82610e19565b6004600083815260200190815260200160002060009054906101000a900473ffffffffffffffffffffffffffffffffffffffff169050919050565b6000610531826106be565b90508073ffffffffffffffffffffffffffffffffffffffff168373ffffffffffffffffffffffffffffffffffffffff1614156105a2576040517f08c379a000000000000000000000000000000000000000000000000000000000815260040161059990612435565b60405180910390fd5b8073ffffffffffffffffffffffffffffffffffffffff166105c1610e64565b73ffffffffffffffffffffffffffffffffffffffff1614806105f057506105ef816105ea610e64565b610b5b565b5b61062f576040517f08c379a0000000000000000000000000000000000000000000000000000000008152600401610626906123d5565b60405180910390fd5b6106398383610e6c565b505050565b61064f610649610e64565b82610f25565b61068e576040517f08c379a000000000000000000000000000000000000000000000000000000000815260040161068590612475565b60405180910390fd5b610699838383610fba565b505050565b6106b983838360405180602001604052806000815250610920565b505050565b6000806002600084815260200190815260200160002060009054906101000a900473ffffffffffffffffffffffffffffffffffffffff169050600073ffffffffffffffffffffffffffffffffffffffff168173ffffffffffffffffffffffffffffffffffffffff161415610767576040517f08c379a000000000000000000000000000000000000000000000000000000000815260040161075e90612415565b60405180910390fd5b80915050919050565b60008073ffffffffffffffffffffffffffffffffffffffff168273ffffffffffffffffffffffffffffffffffffffff1614156107e1576040517f08c379a00000000000000000000000000000000000000000000000000000000081526004016107d890612395565b60405180910390fd5b600360008373ffffffffffffffffffffffffffffffffffffffff1673ffffffffffffffffffffffffffffffffffffffff168152602001908152602001600020549050919050565b6000600760009054906101000a900473ffffffffffffffffffffffffffffffffffffffff16905090565b600760009054906101000a900473ffffffffffffffffffffffffffffffffffffffff1681565b606060018054610887906126eb565b80601f01602080910402602001604051908101604052809291908181526020018280546108b3906126eb565b80156109005780601f106108d557610100808354040283529160200191610900565b820191906000526020600020905b8154815290600101906020018083116108e357829003601f168201915b5050505050905090565b61091c610915610e64565b8383611221565b5050565b61093161092b610e64565b83610f25565b610970576040517f08c379a000000000000000000000000000000000000000000000000000000000815260040161096790612475565b60405180910390fd5b61097c8484848461138e565b50505050565b606061098d82610e19565b60006006600084815260200190815260200160002080546109ad906126eb565b80601f01602080910402602001604051908101604052809291908181526020018280546109d9906126eb565b8015610a265780601f106109fb57610100808354040283529160200191610a26565b820191906000526020600020905b815481529060010190602001808311610a0957829003601f168201915b505050505090506000610a376113ea565b9050600081511415610a4d578192505050610a90565b600082511115610a82578082604051602001610a6a92919061220d565b60405160208183030381529060405292505050610a90565b610a8b84611401565b925050505b919050565b600760009054906101000a900473ffffffffffffffffffffffffffffffffffffffff1673ffffffffffffffffffffffffffffffffffffffff163373ffffffffffffffffffffffffffffffffffffffff1614610b25576040517f08c379a0000000000000000000000000000000000000000000000000000000008152600401610b1c90612455565b60405180910390fd5b610b3182600854611469565b610b3d60085482611487565b600160086000828254610b50919061257a565b925050819055505050565b6000600560008473ffffffffffffffffffffffffffffffffffffffff1673ffffffffffffffffffffffffffffffffffffffff16815260200190815260200160002060008373ffffffffffffffffffffffffffffffffffffffff1673ffffffffffffffffffffffffffffffffffffffff16815260200190815260200160002060009054906101000a900460ff16905092915050565b600760009054906101000a900473ffffffffffffffffffffffffffffffffffffffff1673ffffffffffffffffffffffffffffffffffffffff163373ffffffffffffffffffffffffffffffffffffffff1614610c7f576040517f08c379a0000000000000000000000000000000000000000000000000000000008152600401610c7690612455565b60405180910390fd5b600073ffffffffffffffffffffffffffffffffffffffff168173ffffffffffffffffffffffffffffffffffffffff161415610cef576040517f08c379a0000000000000000000000000000000000000000000000000000000008152600401610ce6906122f5565b60405180910390fd5b8073ffffffffffffffffffffffffffffffffffffffff16600760009054906101000a900473ffffffffffffffffffffffffffffffffffffffff1673ffffffffffffffffffffffffffffffffffffffff167f8be0079c531659141344cd1fd0a4f28419497f9722a3daafe3b4186f6b6457e060405160405180910390a380600760006101000a81548173ffffffffffffffffffffffffffffffffffffffff021916908373ffffffffffffffffffffffffffffffffffffffff16021790555050565b60007f01ffc9a7000000000000000000000000000000000000000000000000000000007bffffffffffffffffffffffffffffffffffffffffffffffffffffffff1916827bffffffffffffffffffffffffffffffffffffffffffffffffffffffff1916149050919050565b610e22816114fb565b610e61576040517f08c379a0000000000000000000000000000000000000000000000000000000008152600401610e5890612415565b60405180910390fd5b50565b600033905090565b816004600083815260200190815260200160002060006101000a81548173ffffffffffffffffffffffffffffffffffffffff021916908373ffffffffffffffffffffffffffffffffffffffff160217905550808273ffffffffffffffffffffffffffffffffffffffff16610edf836106be565b73ffffffffffffffffffffffffffffffffffffffff167f8c5be1e5ebec7d5bd14f71427d1e84f3dd0314c0f7b2291e5b200ac8c7c3b92560405160405180910390a45050565b600080610f31836106be565b90508073ffffffffffffffffffffffffffffffffffffffff168473ffffffffffffffffffffffffffffffffffffffff161480610f735750610f728185610b5b565b5b80610fb157508373ffffffffffffffffffffffffffffffffffffffff16610f99846104e0565b73ffffffffffffffffffffffffffffffffffffffff16145b91505092915050565b8273ffffffffffffffffffffffffffffffffffffffff16610fda826106be565b73ffffffffffffffffffffffffffffffffffffffff1614611030576040517f08c379a000000000000000000000000000000000000000000000000000000000815260040161102790612315565b60405180910390fd5b600073ffffffffffffffffffffffffffffffffffffffff168273ffffffffffffffffffffffffffffffffffffffff1614156110a0576040517f08c379a000000000000000000000000000000000000000000000000000000000815260040161109790612355565b60405180910390fd5b6110ab838383611567565b6110b6600082610e6c565b6001600360008573ffffffffffffffffffffffffffffffffffffffff1673ffffffffffffffffffffffffffffffffffffffff16815260200190815260200160002060008282546111069190612601565b925050819055506001600360008473ffffffffffffffffffffffffffffffffffffffff1673ffffffffffffffffffffffffffffffffffffffff168152602001908152602001600020600082825461115d919061257a565b92505081905550816002600083815260200190815260200160002060006101000a81548173ffffffffffffffffffffffffffffffffffffffff021916908373ffffffffffffffffffffffffffffffffffffffff160217905550808273ffffffffffffffffffffffffffffffffffffffff168473ffffffffffffffffffffffffffffffffffffffff167fddf252ad1be2c89b69c2b068fc378daa952ba7f163c4a11628f55a4df523b3ef60405160405180910390a461121c83838361156c565b505050565b8173ffffffffffffffffffffffffffffffffffffffff168373ffffffffffffffffffffffffffffffffffffffff161415611290576040517f08c379a000000000000000000000000000000000000000000000000000000000815260040161128790612375565b60405180910390fd5b80600560008573ffffffffffffffffffffffffffffffffffffffff1673ffffffffffffffffffffffffffffffffffffffff16815260200190815260200160002060008473ffffffffffffffffffffffffffffffffffffffff1673ffffffffffffffffffffffffffffffffffffffff16815260200190815260200160002060006101000a81548160ff0219169083151502179055508173ffffffffffffffffffffffffffffffffffffffff168373ffffffffffffffffffffffffffffffffffffffff167f17307eab39ab6107e8899845ad3d59bd9653f200f220920489ca2b5937696c31836040516113819190612298565b60405180910390a3505050565b611399848484610fba565b6113a584848484611571565b6113e4576040517f08c379a00000000000000000000000000000000000000000000000000000000081526004016113db906122d5565b60405180910390fd5b50505050565b606060405180602001604052806000815250905090565b606061140c82610e19565b60006114166113ea565b905060008151116114365760405180602001604052806000815250611461565b8061144084611708565b60405160200161145192919061220d565b6040516020818303038152906040525b915050919050565b611483828260405180602001604052806000815250611869565b5050565b611490826114fb565b6114cf576040517f08c379a00000000000000000000000000000000000000000000000000000000081526004016114c6906123b5565b60405180910390fd5b806006600084815260200190815260200160002090805190602001906114f6929190611ac1565b505050565b60008073ffffffffffffffffffffffffffffffffffffffff166002600084815260200190815260200160002060009054906101000a900473ffffffffffffffffffffffffffffffffffffffff1673ffffffffffffffffffffffffffffffffffffffff1614159050919050565b505050565b505050565b60006115928473ffffffffffffffffffffffffffffffffffffffff166118c4565b156116fb578373ffffffffffffffffffffffffffffffffffffffff1663150b7a026115bb610e64565b8786866040518563ffffffff1660e01b81526004016115dd949392919061224c565b602060405180830381600087803b1580156115f757600080fd5b505af192505050801561162857506040513d601f19601f820116820180604052508101906116259190611ef9565b60015b6116ab573d8060008114611658576040519150601f19603f3d011682016040523d82523d6000602084013e61165d565b606091505b506000815114156116a3576040517f08c379a000000000000000000000000000000000000000000000000000000000815260040161169a906122d5565b60405180910390fd5b805181602001fd5b63150b7a0260e01b7bffffffffffffffffffffffffffffffffffffffffffffffffffffffff1916817bffffffffffffffffffffffffffffffffffffffffffffffffffffffff191614915050611700565b600190505b949350505050565b60606000821415611750576040518060400160405280600181526020017f30000000000000000000000000000000000000000000000000000000000000008152509050611864565b600082905060005b6000821461178257808061176b9061274e565b915050600a8261177b91906125d0565b9150611758565b60008167ffffffffffffffff81111561179e5761179d612884565b5b6040519080825280601f01601f1916602001820160405280156117d05781602001600182028036833780820191505090505b5090505b6000851461185d576001826117e99190612601565b9150600a856117f89190612797565b6030611804919061257a565b60f81b81838151811061181a57611819612855565b5b60200101907effffffffffffffffffffffffffffffffffffffffffffffffffffffffffffff1916908160001a905350600a8561185691906125d0565b94506117d4565b8093505050505b919050565b61187383836118e7565b6118806000848484611571565b6118bf576040517f08c379a00000000000000000000000000000000000000000000000000000000081526004016118b6906122d5565b60405180910390fd5b505050565b6000808273ffffffffffffffffffffffffffffffffffffffff163b119050919050565b600073ffffffffffffffffffffffffffffffffffffffff168273ffffffffffffffffffffffffffffffffffffffff161415611957576040517f08c379a000000000000000000000000000000000000000000000000000000000815260040161194e906123f5565b60405180910390fd5b611960816114fb565b156119a0576040517f08c379a000000000000000000000000000000000000000000000000000000000815260040161199790612335565b60405180910390fd5b6119ac60008383611567565b6001600360008473ffffffffffffffffffffffffffffffffffffffff1673ffffffffffffffffffffffffffffffffffffffff16815260200190815260200160002060008282546119fc919061257a565b92505081905550816002600083815260200190815260200160002060006101000a81548173ffffffffffffffffffffffffffffffffffffffff021916908373ffffffffffffffffffffffffffffffffffffffff160217905550808273ffffffffffffffffffffffffffffffffffffffff16600073ffffffffffffffffffffffffffffffffffffffff167fddf252ad1be2c89b69c2b068fc378daa952ba7f163c4a11628f55a4df523b3ef60405160405180910390a4611abd6000838361156c565b5050565b828054611acd906126eb565b90600052602060002090601f016020900481019282611aef5760008555611b36565b82601f10611b0857805160ff1916838001178555611b36565b82800160010185558215611b36579182015b82811115611b35578251825591602001919060010190611b1a565b5b509050611b439190611b47565b5090565b5b80821115611b60576000816000905550600101611b48565b5090565b6000611b77611b72846124d5565b6124b0565b905082815260208101848484011115611b9357611b926128b8565b5b611b9e8482856126a9565b509392505050565b6000611bb9611bb484612506565b6124b0565b905082815260208101848484011115611bd557611bd46128b8565b5b611be08482856126a9565b509392505050565b600081359050611bf781612c6c565b92915050565b600081359050611c0c81612c83565b92915050565b600081359050611c2181612c9a565b92915050565b600081519050611c3681612c9a565b92915050565b600082601f830112611c5157611c506128b3565b5b8135611c61848260208601611b64565b91505092915050565b600082601f830112611c7f57611c7e6128b3565b5b8135611c8f848260208601611ba6565b91505092915050565b600081359050611ca781612cb1565b92915050565b600060208284031215611cc357611cc26128c2565b5b6000611cd184828501611be8565b91505092915050565b60008060408385031215611cf157611cf06128c2565b5b6000611cff85828601611be8565b9250506020611d1085828601611be8565b9150509250929050565b600080600060608486031215611d3357611d326128c2565b5b6000611d4186828701611be8565b9350506020611d5286828701611be8565b9250506040611d6386828701611c98565b9150509250925092565b60008060008060808587031215611d8757611d866128c2565b5b6000611d9587828801611be8565b9450506020611da687828801611be8565b9350506040611db787828801611c98565b925050606085013567ffffffffffffffff811115611dd857611dd76128bd565b5b611de487828801611c3c565b91505092959194509250565b60008060408385031215611e0757611e066128c2565b5b6000611e1585828601611be8565b9250506020611e2685828601611bfd565b9150509250929050565b60008060408385031215611e4757611e466128c2565b5b6000611e5585828601611be8565b925050602083013567ffffffffffffffff811115611e7657611e756128bd565b5b611e8285828601611c6a565b9150509250929050565b60008060408385031215611ea357611ea26128c2565b5b6000611eb185828601611be8565b9250506020611ec285828601611c98565b9150509250929050565b600060208284031215611ee257611ee16128c2565b5b6000611ef084828501611c12565b91505092915050565b600060208284031215611f0f57611f0e6128c2565b5b6000611f1d84828501611c27565b91505092915050565b600060208284031215611f3c57611f3b6128c2565b5b6000611f4a84828501611c98565b91505092915050565b611f5c81612635565b82525050565b611f6b81612647565b82525050565b6000611f7c82612537565b611f86818561254d565b9350611f968185602086016126b8565b611f9f816128c7565b840191505092915050565b6000611fb582612542565b611fbf818561255e565b9350611fcf8185602086016126b8565b611fd8816128c7565b840191505092915050565b6000611fee82612542565b611ff8818561256f565b93506120088185602086016126b8565b80840191505092915050565b600061202160328361255e565b915061202c826128d8565b604082019050919050565b600061204460268361255e565b915061204f82612927565b604082019050919050565b600061206760258361255e565b915061207282612976565b604082019050919050565b600061208a601c8361255e565b9150612095826129c5565b602082019050919050565b60006120ad60248361255e565b91506120b8826129ee565b604082019050919050565b60006120d060198361255e565b91506120db82612a3d565b602082019050919050565b60006120f360298361255e565b91506120fe82612a66565b604082019050919050565b6000612116602e8361255e565b915061212182612ab5565b604082019050919050565b6000612139603e8361255e565b915061214482612b04565b604082019050919050565b600061215c60208361255e565b915061216782612b53565b602082019050919050565b600061217f60188361255e565b915061218a82612b7c565b602082019050919050565b60006121a260218361255e565b91506121ad82612ba5565b604082019050919050565b60006121c5601a8361255e565b91506121d082612bf4565b602082019050919050565b60006121e8602e8361255e565b91506121f382612c1d565b604082019050919050565b6122078161269f565b82525050565b60006122198285611fe3565b91506122258284611fe3565b91508190509392505050565b60006020820190506122466000830184611f53565b92915050565b60006080820190506122616000830187611f53565b61226e6020830186611f53565b61227b60408301856121fe565b818103606083015261228d8184611f71565b905095945050505050565b60006020820190506122ad6000830184611f62565b92915050565b600060208201905081810360008301526122cd8184611faa565b905092915050565b600060208201905081810360008301526122ee81612014565b9050919050565b6000602082019050818103600083015261230e81612037565b9050919050565b6000602082019050818103600083015261232e8161205a565b9050919050565b6000602082019050818103600083015261234e8161207d565b9050919050565b6000602082019050818103600083015261236e816120a0565b9050919050565b6000602082019050818103600083015261238e816120c3565b9050919050565b600060208201905081810360008301526123ae816120e6565b9050919050565b600060208201905081810360008301526123ce81612109565b9050919050565b600060208201905081810360008301526123ee8161212c565b9050919050565b6000602082019050818103600083015261240e8161214f565b9050919050565b6000602082019050818103600083015261242e81612172565b9050919050565b6000602082019050818103600083015261244e81612195565b9050919050565b6000602082019050818103600083015261246e816121b8565b9050919050565b6000602082019050818103600083015261248e816121db565b9050919050565b60006020820190506124aa60008301846121fe565b92915050565b60006124ba6124cb565b90506124c6828261271d565b919050565b6000604051905090565b600067ffffffffffffffff8211156124f0576124ef612884565b5b6124f9826128c7565b9050602081019050919050565b600067ffffffffffffffff82111561252157612520612884565b5b61252a826128c7565b9050602081019050919050565b600081519050919050565b600081519050919050565b600082825260208201905092915050565b600082825260208201905092915050565b600081905092915050565b60006125858261269f565b91506125908361269f565b9250827fffffffffffffffffffffffffffffffffffffffffffffffffffffffffffffffff038211156125c5576125c46127c8565b5b828201905092915050565b60006125db8261269f565b91506125e68361269f565b9250826125f6576125f56127f7565b5b828204905092915050565b600061260c8261269f565b91506126178361269f565b92508282101561262a576126296127c8565b5b828203905092915050565b60006126408261267f565b9050919050565b60008115159050919050565b60007fffffffff0000000000000000000000000000000000000000000000000000000082169050919050565b600073ffffffffffffffffffffffffffffffffffffffff82169050919050565b6000819050919050565b82818337600083830152505050565b60005b838110156126d65780820151818401526020810190506126bb565b838111156126e5576000848401525b50505050565b6000600282049050600182168061270357607f821691505b6020821081141561271757612716612826565b5b50919050565b612726826128c7565b810181811067ffffffffffffffff8211171561274557612744612884565b5b80604052505050565b60006127598261269f565b91507fffffffffffffffffffffffffffffffffffffffffffffffffffffffffffffffff82141561278c5761278b6127c8565b5b600182019050919050565b60006127a28261269f565b91506127ad8361269f565b9250826127bd576127bc6127f7565b5b828206905092915050565b7f4e487b7100000000000000000000000000000000000000000000000000000000600052601160045260246000fd5b7f4e487b7100000000000000000000000000000000000000000000000000000000600052601260045260246000fd5b7f4e487b7100000000000000000000000000000000000000000000000000000000600052602260045260246000fd5b7f4e487b7100000000000000000000000000000000000000000000000000000000600052603260045260246000fd5b7f4e487b7100000000000000000000000000000000000000000000000000000000600052604160045260246000fd5b600080fd5b600080fd5b600080fd5b600080fd5b6000601f19601f8301169050919050565b7f4552433732313a207472616e7366657220746f206e6f6e20455243373231526560008201527f63656976657220696d706c656d656e7465720000000000000000000000000000602082015250565b7f4f776e61626c653a206e6577206f776e657220697320746865207a65726f206160008201527f6464726573730000000000000000000000000000000000000000000000000000602082015250565b7f4552433732313a207472616e736665722066726f6d20696e636f72726563742060008201527f6f776e6572000000000000000000000000000000000000000000000000000000602082015250565b7f4552433732313a20746f6b656e20616c7265616479206d696e74656400000000600082015250565b7f4552433732313a207472616e7366657220746f20746865207a65726f2061646460008201527f7265737300000000000000000000000000000000000000000000000000000000602082015250565b7f4552433732313a20617070726f766520746f2063616c6c657200000000000000600082015250565b7f4552433732313a2061646472657373207a65726f206973206e6f74206120766160008201527f6c6964206f776e65720000000000000000000000000000000000000000000000602082015250565b7f45524337323155524953746f726167653a2055524920736574206f66206e6f6e60008201527f6578697374656e7420746f6b656e000000000000000000000000000000000000602082015250565b7f4552433732313a20617070726f76652063616c6c6572206973206e6f7420746f60008201527f6b656e206f776e6572206e6f7220617070726f76656420666f7220616c6c0000602082015250565b7f4552433732313a206d696e7420746f20746865207a65726f2061646472657373600082015250565b7f4552433732313a20696e76616c696420746f6b656e2049440000000000000000600082015250565b7f4552433732313a20617070726f76616c20746f2063757272656e74206f776e6560008201527f7200000000000000000000000000000000000000000000000000000000000000602082015250565b7f4e6f6e206f776e657273206e6f7420617574686f726973656421000000000000600082015250565b7f4552433732313a2063616c6c6572206973206e6f7420746f6b656e206f776e6560008201527f72206e6f7220617070726f766564000000000000000000000000000000000000602082015250565b612c7581612635565b8114612c8057600080fd5b50565b612c8c81612647565b8114612c9757600080fd5b50565b612ca381612653565b8114612cae57600080fd5b50565b612cba8161269f565b8114612cc557600080fd5b5056fea2646970667358221220e20f0b7740f68e1faafe5e6bce5f41a00db62e7d3e9f00ac36a807db9ccafb3d64736f6c63430008070033",
  "immutableReferences": {},
  "source": "// SPDX-License-Identifier: MIT\npragma solidity ^0.8.7;\n\nimport \"@openzeppelin/contracts/token/ERC721/ERC721.sol\";\nimport \"@openzeppelin/contracts/token/ERC721/extensions/ERC721URIStorage.sol\";\n\ncontract NFTContract is ERC721URIStorage {\n    address public owner;\n    uint256 private tokenId;\n\n    constructor() ERC721(\"NFTContract\", \"NFTC\") {\n        owner = msg.sender;\n        tokenId = 0;\n    }\n\n    // ownership transfer event logging\n    event OwnershipTransferred(\n        address indexed _previousOwner,\n        address indexed _newOwner\n    );\n\n    // get current owner\n    function getOwner() public view returns(address) {\n        return owner;\n    }\n\n    /*\n     * to address is the address to which NFT will be minted.\n     * tokenId is passed from API\n     * tokenURI is passed from API\n    */\n    function safeMint(address _to, string memory _tokenURI) public onlyOwner {\n        _safeMint(_to, tokenId);\n        _setTokenURI(tokenId, _tokenURI);\n        tokenId += 1;\n    }\n\n    // transfer ownership\n    function transferOwnership(address _newOwner) external onlyOwner {\n        require(\n            _newOwner != address(0),\n            \"Ownable: new owner is the zero address\"\n        );\n        emit OwnershipTransferred(owner, _newOwner);\n        owner = _newOwner;\n    }\n\n    modifier onlyOwner() {\n        require(msg.sender == owner, \"Non owners not authorised!\");\n        _;\n    }\n}",
  "sourcePath": "C:\\Users\\ravin\\Desktop\\nft-assignment\\contracts\\NFTContract.sol",
  "compiler": {
    "name": "solc",
    "version": "0.8.7+commit.e28d00a7.Emscripten.clang"
  },
  "schemaVersion": "3.4.10",
  "updatedAt": "2022-10-19T15:18:26.073Z",
  "networkType": "ethereum",
  "devdoc": {
    "kind": "dev",
    "methods": {
      "approve(address,uint256)": {
        "details": "See {IERC721-approve}."
      },
      "balanceOf(address)": {
        "details": "See {IERC721-balanceOf}."
      },
      "getApproved(uint256)": {
        "details": "See {IERC721-getApproved}."
      },
      "isApprovedForAll(address,address)": {
        "details": "See {IERC721-isApprovedForAll}."
      },
      "name()": {
        "details": "See {IERC721Metadata-name}."
      },
      "ownerOf(uint256)": {
        "details": "See {IERC721-ownerOf}."
      },
      "safeTransferFrom(address,address,uint256)": {
        "details": "See {IERC721-safeTransferFrom}."
      },
      "safeTransferFrom(address,address,uint256,bytes)": {
        "details": "See {IERC721-safeTransferFrom}."
      },
      "setApprovalForAll(address,bool)": {
        "details": "See {IERC721-setApprovalForAll}."
      },
      "supportsInterface(bytes4)": {
        "details": "See {IERC165-supportsInterface}."
      },
      "symbol()": {
        "details": "See {IERC721Metadata-symbol}."
      },
      "tokenURI(uint256)": {
        "details": "See {IERC721Metadata-tokenURI}."
      },
      "transferFrom(address,address,uint256)": {
        "details": "See {IERC721-transferFrom}."
      }
    },
    "version": 1
  },
  "userdoc": {
    "kind": "user",
    "methods": {},
    "version": 1
  }
}